:100000000C9454050C947C050C947C050C947C0594
:100010000C947C050C947C050C947C050C947C055C
:100020000C947C050C947C050C947C050C947C054C
:100030000C947C050C947C050C947C050C947C053C
:100040000C94AA130C947C050C941A140C94F413BD
:100050000C947C050C947C050C947C050C947C051C
:100060000C944C140C947C0500000000003E5B4F87
:100070005B3E3E6B4F6B3E1C3E7C3E1C183C7E3C08
:10008000181C577D571C1C5E7F5E1C00183C180016
:10009000FFE7C3E7FF0018241800FFE7DBE7FF30A6
:1000A000483A060E2629792926407F050507407F14
:1000B00005253F5A3CE73C5A7F3E1C1C08081C1C87
:1000C0003E7F14227F22145F5F005F5F06097F017D
:1000D0007F006689956A606060606094A2FFA29468
:1000E00008047E040810207E201008082A1C080836
:1000F0001C2A08081E101010100C1E0C1E0C303884
:100100003E3830060E3E0E06000000000000005F84
:1001100000000007000700147F147F14242A7F2AA0
:100120001223130864623649562050000807030062
:10013000001C2241000041221C002A1C7F1C2A08AE
:10014000083E080800807030000808080808000011
:1001500060600020100804023E5149453E00427F85
:10016000400072494949462141494D331814127FD4
:100170001027454545393C4A494931412111090774
:100180003649494936464949291E000014000000F5
:1001900040340000000814224114141414140041C7
:1001A00022140802015909063E415D594E7C121184
:1001B000127C7F494949363E414141227F414141BC
:1001C0003E7F494949417F090909013E4141517337
:1001D0007F0808087F00417F41002040413F017FA8
:1001E000081422417F404040407F021C027F7F0470
:1001F00008107F3E4141413E7F090909063E4151B9
:10020000215E7F09192946264949493203017F01A8
:10021000033F4040403F1F2040201F3F4038403FA9
:10022000631408146303047804036159494D4300BF
:100230007F4141410204081020004141417F0402F6
:10024000010204404040404000030708002054548D
:1002500078407F284444383844444428384444286B
:100260007F385454541800087E090218A4A49C78BE
:100270007F0804047800447D40002040403D007F1A
:100280001028440000417F40007C047804787C08FA
:100290000404783844444438FC18242418182424CE
:1002A00018FC7C08040408485454542404043F44B3
:1002B000243C4040207C1C2040201C3C4030403CE2
:1002C00044281028444C9090907C4464544C440042
:1002D00008364100000077000000413608000201A6
:1002E0000204023C2623263C1EA1A161123A404092
:1002F000207A38545455592155557941225454780F
:1003000042215554784020545579400C1E527212A7
:100310003955555559395454545939555454580030
:1003200000457C410002457D420001457C407D1234
:1003300011127DF0282528F07C5455450020545496
:100340007C547C0A097F4932494949323A44444441
:100350003A324A4848303A4141217A3A424020787C
:10036000009DA0A07D3D4242423D3D4040403D3C7D
:1003700024FF2424487E4943662B2FFC2F2BFF09A2
:1003800029F620C0887E0903205454794100004496
:100390007D413048484A32384040227A007A0A0A81
:1003A000727D0D19317D2629292F282629292926F4
:1003B00030484D4020380808080808080808382F39
:1003C00010C8ACBA2F102834FA00007B00000814C3
:1003D0002A142222142A14085500550055AA55AA99
:1003E00055AAFF55FF55FF000000FF00101010FF39
:1003F00000141414FF001010FF00FF1010F010F094
:10040000141414FC001414F700FF0000FF00FF1484
:1004100014F404FC141417101F10101F101F1414D0
:10042000141F00101010F0000000001F101010101A
:100430001F10101010F010000000FF10101010100E
:1004400010101010FF10000000FF140000FF00FF4C
:1004500000001F10170000FC04F4141417101714E8
:1004600014F404F40000FF00F7141414141414140A
:10047000F700F7141414171410101F101F1414147D
:10048000F4141010F010F000001F101F0000001FE7
:1004900014000000FC140000F010F01010FF10FF1A
:1004A000141414FF141010101F00000000F010FFAF
:1004B000FFFFFFFFF0F0F0F0F0FFFFFF0000000093
:1004C00000FFFF0F0F0F0F0F3844443844FC4A4A17
:1004D0004A347E02020606027E027E0263554941CC
:1004E000633844443C04407E201E2006027E020203
:1004F00099A5E7A5991C2A492A1C4C7201724C3017
:100500004A4D4D303048784830BC625A463D3E49ED
:100510004949007E0101017E2A2A2A2A2A44445F91
:10052000444440514A444040444A51400000FF0185
:1005300003E080FF000008086B6B08361236243693
:10054000060F090F060000181800000010100030F8
:1005500040FF0101001F01011E00191D1712003C80
:100560003C3C3C0000000000000103070F1F3F7FE0
:100570000080C0E0F0F8FCFEDB40A4A62EAF200017
:10058000A1C8D300408DAED580A800006000000057
:100590000000000000000000000000E0000000007B
:1005A00000000000000000000001E000000000006A
:1005B000000000000000000001F00000000000004A
:1005C0000000000000000003F00000000000000038
:1005D00000000000000007F0000000000000000024
:1005E000000000000007F80000000000000000000C
:1005F000000000000FF800000003C0007E000001B2
:10060000E0007F0FF800000003C000FE000001E0E2
:1006100000FFEFF800000003C000FE000001E00052
:10062000FFFFF800000003C000F00000000F007F93
:10063000FE7FC0000003C000F00000000F003FFE7E
:100640007FF83FF1FBCFFCFEF3BC3DEFE01FFE7FE8
:10065000FF7FFBFFDFFEFEFFBC3DEFE01FC6FFFF9D
:100660007FFBFFDFFEFEFFBC3DEFE00FE3C7FE7840
:100670007BC3DE1EF0FFBC3DEF0007FF87FC787BED
:10068000C3DE1EF0F83C3DEF0001FFFFF0007BC32E
:10069000C01EF0F03C3DEF0001F37FE03FFBC3CF15
:1006A000FEF0F03C3DEF0003E33F807FFBC3DFFE45
:1006B000F0F03C3DEF0007E73C00787BC3DE1EF026
:1006C000F03C3DEF0007FFBE00787BC3DE1EF0F07C
:1006D0003C3DEF0007FFFE00787BC3DE1EF0F03CE0
:1006E0003DEF000FFFFE007FFBFFDFFEF0F03FFD60
:1006F000EFE00FFFFF007FFBFFDFFEF0F03FFDEFBD
:10070000E00FF9FF003E79F9CF9EF0F01F3DE7E0E2
:100710001FF1FF0000000000000000000000001FAB
:1007200080FF007FFFFFFFFFFFFFFFFFFFE01C00D8
:100730007F007FFFFFFFFEB46D888D18E000001F73
:10074000007FFFFFFFFE95AD7DB577E000000F0055
:100750007FFFFFFFFEA5AD9D8D19E0000006007F25
:10076000FFFFFFFEB5ADEDB57EE00000000000012B
:100770008000000000000000000003800000000076
:10078000000000000007C0000000000000000000A2
:1007900007C00000000000000000000FC0000000C3
:1007A0000000000000001FE000000000000000004A
:1007B000001FE00000000000000000003FE000001B
:1007C000000000000000003FF000000000000000FA
:1007D00000007FF0000000000000001FF87FF00024
:1007E0000000000000003FFE7FF00000000000005D
:1007F000003FFF7FF0000000000000001FFFFBE053
:10080000000000000000000FFFF9FFC00000000022
:1008100000000FFFF9FFF800000000000007FFF1E3
:10082000FFFF00000000000003FC73FFFF800000DA
:1008300000000001FE3FFFFF80000000000000FFFD
:100840001E0FFF000000000000007FFE1FFC0000E4
:1008500000000000003FFFFFF80000000000000063
:100860000FDFFFE0000000000000001F19FFC000C4
:100870000000000000003F3CFF00000000000000FE
:10088000007E7CF800000000000000007FFE7C007D
:1008900000000000000000FFFFFC0000000000005E
:1008A0000000FFFFFE0000000000000000FFFFFE50
:1008B0000000000000000001FFEFFE00000000004B
:1008C000000001FFCFFE0000000000000003FF0752
:1008D000FE0000000000000003FC07FE0000000016
:1008E00000000003F003FE00000000000000018093
:1008F00000FE000000000000000000007E0000007C
:10090000000000000000003E0000000000000000A9
:1009100000000C000000000000078000FC00000345
:10092000C0000000078001FC000003C000000007B9
:100930008001FC000003C0000000078001E000000F
:10094000001E000000078001E00000001E007FE3A1
:10095000F79FF9FDE7787BDFC0FFF7FFBFFDFDFFE5
:10096000787BDFC0FFF7FFBFFDFDFF787BDFC0F0C6
:10097000F787BC3DE1FF787BDE00F0F787BC3DE107
:10098000F0787BDE0000F787803DE1E0787BDE00D9
:100990007FF7879FFDE1E0787BDE00FFF787BFFDF3
:1009A000E1E0787BDE00F0F787BC3DE1E0787BDEBC
:1009B00000F0F787BC3DE1E0787BDE00F0F787BC14
:1009C0003DE1E0787BDE00FFF7FFBFFDE1E07FFB6C
:1009D000DFC0FFF7FFBFFDE1E07FFBDFC07CF3F38B
:1009E0009F3DE1E03E7BCFC0000000000000000022
:1009F000000000FFFFFFFFFFFFFFFFFFFFC0FFFF43
:100A0000FFFFFD68DB111A31C0FFFFFFFFFD2B5A0E
:100A1000FB6AEFC0FFFFFFFFFD4B5B3B1A33C0FFDC
:100A2000FFFFFFFD6B5BDB6AFDC0000000002300E1
:100A3000260029002200FF21005353443133303671
:100A400020616C6C6F636174696F6E206661696CA4
:100A500065640000000000240027002A0000000058
:100A600000250028002B00040404040404040402EC
:100A7000020202020203030303030301020408103B
:100A80002040800102040810200102040810200008
:100A9000000008000201000003040700000000003D
:100AA00000000000B0157D1B11241FBECFEFD8E061
:100AB000DEBFCDBF11E0A0E0B1E0E8E7FDE302C09A
:100AC00005900D92A636B107D9F723E0A6E6B1E06E
:100AD00001C01D92AB31B207E1F715E0C3E5D5E0E7
:100AE00004C02197FE010E94781DC235D107C9F7C5
:100AF0000E9444160C94AF1E0C940000089590E0E0
:100B0000FC01E157F54F2491FC01E558F54F349174
:100B1000FC01E959F54FE491EE23C9F0222339F0A5
:100B2000233001F1A8F4213019F1223029F1F0E04D
:100B3000EE0FFF1FE35AF54FA591B4918FB7F894CC
:100B4000EC91611126C030953E233C938FBF0895F0
:100B50002730A9F02830C9F0243049F7809180006F
:100B60008F7D03C0809180008F7780938000DFCFDE
:100B700084B58F7784BDDBCF84B58F7DFBCF80912B
:100B8000B0008F778093B000D2CF8091B0008F7D7E
:100B9000F9CF3E2BDACFCF93DF9390E0FC01E558FD
:100BA000F54F24918959954FFC0184918823D1F008
:100BB00090E0880F991FFC01ED5AF54FA591B49173
:100BC000FC01E35AF54FC591D49161110EC09FB756
:100BD000F8948C91E22FE0958E238C932881E22368
:100BE000E8839FBFDF91CF9108958FB7F894EC9180
:100BF000E22BEC938FBFF6CF3FB7F894809122029F
:100C000090912302A0912402B091250226B5A89BC1
:100C100005C02F3F19F00196A11DB11D3FBFBA2F8E
:100C2000A92F982F8827BC01CD01620F711D811D4E
:100C3000911D42E0660F771F881F991F4A95D1F7D3
:100C400008958F929F92AF92BF92CF92DF92EF92D0
:100C5000FF924B015C010E94FC056B017C010E942C
:100C6000FC056C197D098E099F09683E734081055A
:100C70009105A8F321E0821A9108A108B10888EE35
:100C8000C80E83E0D81EE11CF11C81149104A1045C
:100C9000B10429F7FF90EF90DF90CF90BF90AF9015
:100CA0009F908F90089508950895AF92BF92CF922C
:100CB000DF92EF92FF920F931F93CF93DF936C011C
:100CC0007B018B01040F151FEB015E01AE18BF08FD
:100CD000C017D10759F06991D601ED91FC910190AF
:100CE000F081E02DC6010995892B79F7C501DF91C7
:100CF000CF911F910F91FF90EF90DF90CF90BF9019
:100D0000AF900895FC01538D448D252F30E0842F42
:100D100090E0821B930B541710F0CF960895019723
:100D20000895FC01918D828D981761F0A28DAE0F10
:100D3000BF2FB11D5D968C91928D9F5F9F73928F97
:100D400090E008958FEF9FEF0895FC01918D828DC3
:100D5000981731F0828DE80FF11D858D90E0089590
:100D60008FEF9FEF0895FC01918D228D892F90E0E8
:100D7000805C9F4F821B91098F73992708958AE2A7
:100D800092E00E94B30621E0892B09F420E0822F33
:100D9000089580E090E0892B29F00E94BF06811120
:100DA0000C9400000895FC01A48DA80FB92FB11D6B
:100DB000A35ABF4F2C91848D90E001968F73992791
:100DC000848FA689B7892C93A089B1898C9183706F
:100DD00080648C93938D848D981306C00288F38968
:100DE000E02D80818F7D80830895EF92FF920F9395
:100DF0001F93CF93DF93EC0181E0888F9B8D8C8DC7
:100E000098131AC0E889F989808185FF15C09FB7BA
:100E1000F894EE89FF896083E889F989808183707D
:100E2000806480839FBF81E090E0DF91CF911F912C
:100E30000F91FF90EF900895F62E0B8D10E00F5F4D
:100E40001F4F0F731127E02E8C8D8E110CC00FB623
:100E500007FCFACFE889F989808185FFF5CFCE01BB
:100E60000E94D306F1CFEB8DEC0FFD2FF11DE35A5D
:100E7000FF4FF0829FB7F8940B8FEA89FB8980813E
:100E80008062CFCFCF93DF93EC01888D8823B9F0B8
:100E9000AA89BB89E889F9898C9185FD03C0808185
:100EA00086FD0DC00FB607FCF7CF8C9185FFF2CF02
:100EB000808185FFEDCFCE010E94D306E9CFDF917F
:100EC000CF910895EF92FF920F931F93CF93DF93EB
:100ED000EC01EC80FD806E157F050CF070C057FFB3
:100EE00004C0240F351F50E040E08E819F81FA013D
:100EF000E20FF31F8E179F071CF49C01241B350B78
:100F0000121613060CF05BC0922F842F86958695DF
:100F100086958E9DD0018F9DB00D11246A0F7B1F89
:100F2000AF8DB8A1A60FB71F477049F188E0841BA9
:100F3000482F682F70E0FB01E059FA4FE491281721
:100F400008F063C0621B71092FEF30E002C03595D5
:100F500027956A95E2F7E2230130110539F0B0F1E7
:100F60000230110561F58C91E82702C08C91E82BC5
:100F7000EC93941720F12C813D81A20FB31FE92F30
:100F8000E41BE83078F00230110521F58E2F9C919A
:100F900090959C932C813D81A20FB31F885088307F
:100FA000B0F7E770EE2359F0F0E0E859FA4FE4911A
:100FB00001301105F9F010F10230110519F1DF913E
:100FC000CF911F910F91FF90EF900895E0958C9134
:100FD000E823CECF81E00115110509F480E0819569
:100FE0009E2F8C932C813D81A20FB31F9850983077
:100FF000C0F7D7CF8C91E82BEC93E1CFE0958C91A3
:10100000E823FACF8C91E827F7CF0130110509F4D6
:10101000ADCFE0F20230110509F4A5CFAE0DBF1D32
:10102000AECF0F931F93CF93DF9377FF04C0260FAC
:10103000371F70E060E0DC011496CD91DC91FB017C
:10104000E20FF31FCE17DF071CF49E01261B370BA0
:10105000121613064CF5FA0157FD3796A3E0F595E5
:10106000E795AA95E1F7EC9FD001ED9FB00DFC9FAD
:10107000B00D11246A0F7B1FDC015F96ED91FC918E
:10108000E60FF71F4770552781E090E001C0880FF9
:101090004A95EAF7482F0130110559F0A8F02E0FB4
:1010A0003F1F02301105E1F0DF91CF911F910F91A9
:1010B00008952E0F3F1FE217F307B1F38191DF016F
:1010C0001197842B8C93F7CF80952E0F3F1FE2173B
:1010D000F30751F39191DF01119798239C93F7CF78
:1010E000E217F30709F38191DF01119784278C93AD
:1010F000F7CF0F931F93FA01DC0156964C91569748
:101100004230E9F04330A1F1413061F514964D9140
:101110005C91DA01AE1BBF0BFD01E21BF30B77FD07
:101120000BC0DC0116964D915C916417750724F491
:10113000AB01BF010E9411081F910F9108951496F1
:101140004D915C91DA01A61BB70BBD01615071098D
:10115000DC0116964D915C91DA01AE1BBF0BFD01CF
:10116000E21BF30B77FDE8CFAF010E946207E4CFEB
:1011700016964D915C91DA01A61BB70BBD0161502B
:101180007109CDCF0F931F93FA01DC0156964C9154
:1011900056974230A9F0433091F1413019F5149639
:1011A0004D915C91DA01AE1BBF0BFD013197F7FD4C
:1011B00004C0AB01BF010E9462071F910F91089507
:1011C00014964D915C91DA01A61BB70BBD01DC01B1
:1011D00016964D915C91DA01AE1BBF0BFD01319764
:1011E000621B730BF7FDE9CFDC0116964D915C9104
:1011F000E417F50714F7AF010E941108DECF169629
:101200004D915C91DA01A61BB70BBD01621B730BFC
:10121000CECFFC0177FD64C0808591856817790782
:101220000CF05EC057FD5CC0828593854817590756
:101230000CF056C086898230B1F0833029F18130BC
:1012400041F484819581841B950BAB01BC016150F5
:1012500071092130310509F108F443C0223031050C
:1012600009F463C0089584819581DC01A61BB70B46
:10127000BD016150710986819781DC01A41BB50B0A
:10128000AD0141505109E5CF86819781861B970BAF
:10129000BA01AC0141505109DCCFCA0157FD079694
:1012A000A3E095958795AA95E1F7A481B5818A9FDA
:1012B00090018B9F300D9A9F300D1124620F731F88
:1012C000078CF0A1E02DE60FF71F4770552721E0AE
:1012D00030E001C0220F4A95EAF78081822B80839B
:1012E0000895CA0157FD079633E0959587953A957D
:1012F000E1F7A481B5818A9F90018B9F300D9A9F61
:10130000300D1124620F731F078CF0A1E02DE60F42
:10131000F71F4770552781E090E001C0880F4A957C
:10132000EAF7809590818923DACFCA0157FD0796A5
:1013300023E0959587952A95E1F7A481B5818A9F49
:1013400090018B9F300D9A9F300D1124620F731FF7
:10135000078CF0A1E02DE60FF71F4770552721E01D
:1013600030E001C0220F4A95EAF780818227B7CF8B
:1013700008958EBD00000DB407FEFDCF8EB5089513
:101380008CBD9DBD08950895FC016370668B8481BA
:10139000958126813781613039F0633029F091875A
:1013A00080873387228708953187208793878287B4
:1013B00008952F923F924F925F926F927F928F92F9
:1013C0009F92AF92BF92CF92DF92EF92FF920F93D4
:1013D0001F93CF93DF93CDB7DEB76A970FB6F8941C
:1013E000DEBF0FBECDBF9A8F898F7A8369834A0192
:1013F000D22E18870F833701BC2CDC0159962D9112
:101400003C915A972115310509F015C118968D9117
:101410009C911997681779070CF0D7C11A968D918E
:101420009C91481759070CF0D0C14C2C512CB6E0B8
:10143000CB9E600D711D11247C876B8716161706D5
:101440000CF0C3C1EA2DF0E0FA87E98793E0EE0FD4
:10145000FF1F9A95E1F7F88BEF87CF01840F951F57
:10146000181619060CF0B1C1A98DBA8D58968C9139
:10147000811104C0BFEABD1508F4D394A98DBA8DBB
:10148000ED91FC9111970284F385E02DCD01099532
:10149000B5E0DB9EC0011124E981FA81FC83EB8376
:1014A000312C212C9C0128593F4F388F2F8B4A2DEE
:1014B00050E05E8B4D8BEF89F88DE20DF31D44916A
:1014C0009E828D82D12CC12C69817A81620D731D1F
:1014D0007A8B698B842F90E09C8B8B8BE98DFA8DB6
:1014E000A081B18140FF82C0F1E0BF126FC0AF1296
:1014F0006DC01C96ED91FC912F813885A4014C0D97
:101500005D1D69897A89898D9A8D0995EB89FC8998
:10151000F595E7954E2F5FEFC51AD50A6D817E814F
:101520008D899E89680F791F7E836D8398E0C91627
:10153000D10481F6AFEF2A1A3A0AEB81FC81E40D5F
:10154000F51DFC83EB83F5E02F16310409F0B3CFD2
:101550002F81388526153705B9F0A98DBA8DED9103
:10156000FC91B1E0BB1257C0AB1255C069817A81C2
:101570006B5F7F4F0088F189E02D830128E030E028
:10158000A401898D9A8D0995A98DBA8DED91FC9153
:1015900011970688F789E02DCD016A960FB6F89469
:1015A000DEBF0FBECDBFDF91CF911F910F91FF9096
:1015B000EF90DF90CF90BF90AF909F908F907F90F3
:1015C0006F905F904F903F902F9009941E96ED91F1
:1015D000FC91EF80F88409851A8592014D815E8126
:1015E0006B817C81898D9A8D099590CF2F8138856B
:1015F0002615370509F48ACF31E0B31207C0A312CC
:1016000005C01C96ED91FC91930178CF1E96ED914B
:10161000FC917301E0CF6B857C85641975090684A4
:10162000F785E02D73010F8518899201A401898D3A
:101630009A8D0995A9CFF9013496949132974591E5
:101640005491D91AB7E0DB9E400D511D1124F901C8
:10165000259134913C8B2B8BFA0125903490FA0123
:101660003296749031963491398B329664903196DB
:10167000449041E04C1518F04A1508F07FC0662DE3
:10168000062C000C770B7C836B83842D042C000CC0
:10169000990B9E838D83A98DBA8DED91FC91119745
:1016A0000284F385E02DCD010995512CD12CC12C5C
:1016B000EA2DF0E0FA87E9872B2D30E03C872B8775
:1016C000A401440D511D47FC5A95588F4F8B6981D9
:1016D0007A81660D711D67FC7A957E876D877989A1
:1016E000C71608F051CF2C2D30E04D815E81420F9E
:1016F000531FA985BA854A9FC0014B9F900D5A9FE1
:10170000900D1124FC01E80DF91DF88BEF87852D54
:10171000612C4F89588D420F531F5E8B4D8B671480
:1017200008F050C044244394480E877041F4C1012E
:101730000196EB89FC89E20DF31DD4901C01D7FEC4
:1017400019C0A98DBA8DED91FC91662D70E0B1E0C4
:10175000BB1219C0AB1217C02D853E85620F731FD7
:101760000484F585E02D2F8138854D895E89898D2A
:101770009A8D0995DD0C6394842DD1CF1E821D8234
:101780001C821B8288CF4B815C81640F751FAB85E7
:10179000BC856A9FC0016B9F900D7A9F900D1124AC
:1017A00069817A81680F791F0684F785E02DEF80C3
:1017B000F88409851A859D014F855889898D9A8DF0
:1017C0000995D8CF570CC3948ACF6A960FB6F89470
:1017D000DEBF0FBECDBFDF91CF911F910F91FF9064
:1017E000EF90DF90CF90BF90AF909F908F907F90C1
:1017F0006F905F904F903F902F9008958F929F929F
:10180000AF92CF92EF92FF920F931F93CF93DF93FC
:10181000EC01262F898D9A8D009709F051C06A300E
:10182000D1F41D861C868D8948E0849F9001112487
:101830008E859F85820F931F9F878E8781E090E022
:10184000DF91CF911F910F91FF90EF90CF90AF90CC
:101850009F908F9008956D3089F3CC88AD888F89E3
:101860008823C1F08C859D8536E0C39E800D911D37
:101870001124488559854817590764F44E855F85BA
:101880001D861C8638E0A39EC0011124840F951F7D
:101890009F878E87EA88FB88088919894E855F852E
:1018A0006C857D85CE010E94D9092C898C859D850A
:1018B00046E0249F800D911D11249D878C87BECF0B
:1018C0006A3069F41D861C86FC013896E4912D89E6
:1018D0008E859F85E29F800D911D1124ADCF6D30C7
:1018E00009F4ACCFFC0134963491631708F4A6CF09
:1018F0003296E491E61708F4A1CFFC013296859068
:101900009490462F431B342F47E0349F800C911C4A
:101910001124F401329634913196E4913323A9F1E4
:10192000EE2399F1CC88F4013596E491AD884F8986
:10193000442301F10E2E000CFF0BE30FF11DCE9E90
:10194000A001CF9E500D11246C857D85460F571F39
:1019500068857985641775076CF44E855F851D86EB
:101960001C86FC013896E491AE9E400D511D112459
:101970005F874E87EA88FB88088919894E855F85CD
:101980006C857D85CE010E94D909F4013496E491DD
:101990002C898C859D85E29F800D911D11248DCF12
:1019A0006F927F928F929F92AF92BF92CF92DF926F
:1019B000EF92FF920F931F93CF93DF93EC016B0194
:1019C0005A0139014801E881F9810284F385E02D4B
:1019D0000995E881F9810288F389E02D8701930157
:1019E000A501B601CE010995A501480D591D41502B
:1019F0005109E881F9810288F389E02D9301B6014C
:101A0000CE010995E881F9810088F189E02D9401E2
:101A1000A501B601CE010995C60CD71CB6016150CF
:101A20007109E881F9810088F189E02D9401A5010F
:101A3000CE010995E881F9810688F789E02DCE016C
:101A4000DF91CF911F910F91FF90EF90DF90CF909A
:101A5000BF90AF909F908F907F906F9009946F92FE
:101A60007F928F929F92AF92BF92CF92DF92EF922E
:101A7000FF920F931F93CF93DF935C01EB016A01F9
:101A8000490138018701DC01ED91FC916217730770
:101A900019F5641675062CF0962D872D3A01C92E7E
:101AA000D82E9601261937092F5F3F4F048CF58DEC
:101AB000E02DA301BE01C5010995DF91CF911F91D2
:101AC0000F91FF90EF90DF90CF90BF90AF909F90DD
:101AD0008F907F906F9008954615570591F42617C3
:101AE000370724F0892D4B01C22FD82F9E012819CA
:101AF00039092F5F3F4F068CF78DE02DA601B40109
:101B0000DACF0284F385E02D0995D501ED91FC91A2
:101B10000488F589E02D83019401A601BE01C50169
:101B20000995D501ED91FC910688F789E02DC50155
:101B3000DF91CF911F910F91FF90EF90DF90CF90A9
:101B4000BF90AF909F908F907F906F900994EF928D
:101B5000FF920F931F93DC011A960D911C911B9716
:101B600018962D913C911997ED91FC9100A0F1A14F
:101B7000E02D7B0150E040E070E060E009951F91AE
:101B80000F91FF90EF9008954F925F926F927F9226
:101B90008F929F92AF92BF92CF92DF92EF92FF927D
:101BA0000F931F93CF93DF936C012B015A013901DF
:101BB0004801DC01ED91FC910284F385E02D09954B
:101BC000E201640C751CD601ED91FC91C615D70598
:101BD0005CF40088F189E02D87019401A501BE0124
:101BE000C60109952196EFCF0688F789E02DC60139
:101BF000DF91CF911F910F91FF90EF90DF90CF90E9
:101C0000BF90AF909F908F907F906F905F904F901C
:101C100009948F929F92AF92BF92CF92DF92EF92F0
:101C2000FF920F931F93CF93DF93EC015B014A0167
:101C30006901E881F9810284F385E02D0995950118
:101C40002C0D3D1D21503109E881F9810488F58969
:101C5000E02D78018401A401B501CE010995E88148
:101C6000F9810688F789E02DCE01DF91CF911F9190
:101C70000F91FF90EF90DF90CF90BF90AF909F902B
:101C80008F9009948F929F92AF92BF92CF92DF92E2
:101C9000EF92FF920F931F93CF93DF93EC015B01C1
:101CA0004A0169017801E881F9810284F385E02D18
:101CB0000995C80CD91C860101501109E881F981E8
:101CC0000488F589E02D9501A401B501CE0109959F
:101CD000E881F9810688F789E02DCE01DF91CF9167
:101CE0001F910F91FF90EF90DF90CF90BF90AF903A
:101CF0009F908F900994EF92FF920F931F93DC01B6
:101D0000ED91FC9100A0F1A1E02D09951F910F919B
:101D1000FF90EF9008950F931F93DC01ED91FC91DC
:101D2000068CF78DE02D09951F910F9108950F9363
:101D30001F93DC01ED91FC91048CF58DE02D09954C
:101D40001F910F910895DC01ED91FC910084F185C4
:101D5000E02D09943F924F925F926F927F928F9203
:101D60009F92AF92BF92CF92DF92EF92FF920F932A
:101D70001F93CF93DF935C017B014A016901390115
:101D800087E0680E711C93E0759467949A95E1F76B
:101D90002B01400E511E10E000E0312CD0E0C0E0DD
:101DA000CE0187709927330C892B59F4FE0183E00B
:101DB000F595E7958A95E1F7E00FF11FE80DF91D1C
:101DC000349037FE0AC021E030E0A701B5016C0F66
:101DD0007D1F83ED92E00E94A30E2196CC16DD06B6
:101DE000F9F68FEFE81AF80A060D171DE414F5044A
:101DF000A9F6DF91CF911F910F91FF90EF90DF90A7
:101E0000CF90BF90AF909F908F907F906F905F909A
:101E10004F903F9008952F923F924F925F926F9212
:101E20007F928F929F92AF92BF92CF92DF92EF926A
:101E3000FF920F931F93CF93DF9300D000D000D079
:101E4000CDB7DEB73C016A013E832D83FC82EB8275
:101E50005801A41AB50AB7FE03C0B194A194B10801
:101E60008D809E80861A970A97FE03C09194819474
:101E700091088A149B045CF0902F812F0D811E81A4
:101E80009D838E839C2D8D2D6B01692F782F0C15D2
:101E90001D055CF09D818E817E836D83692F782F77
:101EA000902F812F8601C92ED82E1601201A310AB3
:101EB0002B012D813E81421A530A57FE03C05194D3
:101EC00041945108710137FE03C03FEFE31AF30A52
:101ED000F594E7948D819E81861797075CF5A1E0C4
:101EE000B0E0BA83A983C016D1064CF1D301ED91BD
:101EF000FC910484F585E02D2B813C81A8016D8146
:101F00007E818A149B041CF04D815E81B801C3015F
:101F10000995E418F508F7FE0AC02D813E818981F4
:101F20009A81280F391F3E832D83E20CF31C0F5F2B
:101F30001F4FD9CF2FEF3FEF3A832983D4CF269677
:101F40000FB6F894DEBF0FBECDBFDF91CF911F91CA
:101F50000F91FF90EF90DF90CF90BF90AF909F9048
:101F60008F907F906F905F904F903F902F9008954B
:101F700008952091CC01260F3327331F21323105DC
:101F8000ECF42091F001FC0190E080E0243069F055
:101F900082E00895A091CC012191AC0144555E4F9F
:101FA000A40FB52FB11D2C930196861798F380913D
:101FB000CC01680F6093CC0180E0089581E0089522
:101FC0001092F00181E08093F2011092F10161E042
:101FD00082E10E947F0561E083E10E947F05E9EBD9
:101FE000F0E080818E7F808380818D7F808388E494
:101FF0008093B80085E48093BC000895CF93DF936D
:1020000091E09093AB018823B9F0C091B800D091D2
:10201000BA008091BC008A7B8093BC0060E082E1C2
:102020000E947F0560E083E10E947F050E94E00F2F
:10203000D093BA00C093B800DF91CF910895E0919A
:102040001C0280911B02E81730F4F0E0EA57FE4FC3
:10205000808190E008958FEF9FEF089590911C028A
:1020600080911B022FEF3FEF981748F4E92FF0E023
:10207000EA57FE4F208130E09F5F90931C02C90118
:10208000089580911B0290911C02891B990B089561
:10209000CF92DF92EF92FF920F931F93CF93DF9334
:1020A0007C01CB018A0120912902222389F0EB01D6
:1020B0006B01C40ED51ECC15DD0569F06991D70101
:1020C000ED91FC910190F081E02DC7010995F3CFCE
:1020D000642F0E94B90FC801DF91CF911F910F911A
:1020E000FF90EF90DF90CF900895CF93DF931F92F2
:1020F000CDB7DEB76983209129022223F9F0209120
:102100002602203258F021E030E0FC0133832283A4
:1021100090E080E00F90DF91CF91089580912702A9
:10212000E82FF0E0EA59FE4F998190838F5F80930A
:1021300027028093260281E090E0ECCF61E0CE019F
:1021400001960E94B90FF7CFCF92DF92EF92FF92E4
:102150000F931F93CF93DF93D091260281E0D1326A
:1021600008F09CC0C09128020E94FC056B017C0114
:102170008091F00181116CC082E08093F00181E0D8
:102180008093F2018FEF8093EF0110921402D093AD
:102190001302A6E6B1E0E3EFF1E080E0D8138DC0D2
:1021A0001092150280911502CC0FC82BC093150216
:1021B0008091F101813009F084C01092F1010E94F8
:1021C000FC056B017C01809115028093BB0080911E
:1021D000A7019091A801A091A901B091AA01892B12
:1021E0008A2B8B2BA1F00E94FC050091A701109176
:1021F000A8012091A9013091AA016C197D098E09CD
:102200009F09061717072807390708F442C080916D
:10221000BC0083FDD8CF85EC8093BC000E94FC05F8
:102220006B017C018091F001823009F44CC08091F7
:10223000EF018F3F09F469C08091EF01803209F40A
:1022400066C08091EF01803309F463C084E026C04A
:102250008091A7019091A801A091A901B091AA0134
:10226000892B8A2B8B2B09F483CF0E94FC050091CC
:10227000A7011091A8012091A9013091AA016C1920
:102280007D098E099F09061717072807390708F0E7
:102290006FCF8091A6010E94FE0F85E01092270269
:1022A0001092260210922902DF91CF911F910F9177
:1022B000FF90EF90DF90CF9008959D9191938F5F65
:1022C0006DCF85EEA9CF8091A7019091A801A09133
:1022D000A901B091AA01892B8A2B8B2B09F4A2CFDB
:1022E0000E94FC050091A7011091A8012091A9016D
:1022F0003091AA016C197D098E099F0906171707ED
:102300002807390708F08ECFC4CF80E0C7CF82E01E
:10231000C5CF83E0C3CFEF92FF920F931F93CF936C
:10232000DF937C01C62F8091F0029091F10200971B
:1023300009F459C02091F40231E03093290220932E
:1023400028021092270210922602DC01ED91FC91E6
:102350000190F081E02D60E009958701EE24E3947F
:10236000F12CD1E0C1508091F0029091F102CF3F69
:1023700091F1B0E2EB16F104D8F00E94A410809124
:10238000F0029091F1022091F402D093290220935F
:1023900028021092270210922602DC01ED91FC9196
:1023A0000190F081E02D60E00995EE24E394F12C9A
:1023B0008091F0029091F102F8016491DC01ED91BD
:1023C000FC910190F081E02D0995BFEFEB1AFB0A1B
:1023D0000F5F1F4FC7CFDF91CF911F910F91FF90DC
:1023E000EF900C94A410E0910003F0910103908110
:1023F000809106038095892380838701C15008F46A
:1024000038C0F80184912091EE023091EF02232B25
:1024100029F00E94B9090F5F1F4FF0CF28E030E08C
:1024200040E8E091FC02F091FD0290910403582FE6
:102430005423D9F05081952B9083E091FE02F091C6
:10244000FF02908150910503952B9083E091FE024D
:10245000F091FF0250819091050390959523908310
:10246000469521503109E9F6D6CF508190959523B4
:10247000E3CFDF91CF911F910F91FF90EF900895DF
:102480001F93CF93DF93EC018D8D9E8D009721F1EB
:10249000162F29A131E030932902209328021092AF
:1024A000270210922602DC01ED91FC910190F0814F
:1024B000E02D60E009958D8D9E8DDC01ED91FC9104
:1024C0000190F081E02D612F09958D8D9E8DDF911A
:1024D000CF911F910C94A410ADA5BEA59C918BA982
:1024E000809589238C938B8D9C8D892B31F0862F41
:1024F000DF91CF911F910C94B90928E030E080E87A
:10250000A9A5BAA599A9462F4823C1F04C91942BAF
:102510009C93ABA5BCA59C914AA9942B9C93ABA57D
:10252000BCA54C919AA9909594239C938695215093
:10253000310931F7DF91CF911F9108954C9190951A
:102540009423E6CF1F93CF93DF93EC01162F8D8D4D
:102550009E8D892BB1F12DA93EA94FA958AD60E000
:1025600074E284EF90E00E94561D20513109410928
:10257000510956954795379527952093B80066EAF7
:10258000111167EACE010E9440128D8D9E8D892B1C
:1025900041F129AD3AAD4BAD5CAD60E074E284EF42
:1025A00090E00E94561D205131094109510956956C
:1025B0004795379527952093B800DF91CF911F91CC
:1025C00008958B8D9C8D892B21F08EAD9FAD0E943F
:1025D000C009EFA5F8A990818CA9809589238083F3
:1025E000CECFEFA5F8A980819CA9892B8083E5CF68
:1025F00090E080E008952091D9023091DA02C9017B
:10260000079697FD079623E0959587952A95E1F71C
:102610002091D7023091D802829FA001839F500D54
:10262000929F500D112470E060E08091F202909131
:10263000F3020C94A81E0E94A31EFB01019000202F
:10264000E9F73197AF01461B570BDC01ED91FC9187
:102650000280F381E02D09948F929F92AF92BF92F6
:102660000F931F93CF93DF93CDB7DEB7A1970FB62C
:10267000F894DEBF0FBECDBF19A2423008F44AE085
:102680008E010F5D1F4F842E912CB12CA12CA50122
:1026900094010E94561DE62FB901CA01EA3004F5E3
:1026A000E05DD801EE938D01232B242B252B79F7A8
:1026B00090E080E0109729F0BD0183ED92E00E9448
:1026C0001D13A1960FB6F894DEBF0FBECDBFDF91EC
:1026D000CF911F910F91BF90AF909F908F900895D1
:1026E000E95CDFCF85ED8093BC008091A7019091DC
:1026F000A801A091A901B091AA010796A11DB11D41
:1027000023E0B695A795979587952A95D1F72091BF
:10271000BC0024FD03C01092F00108954091A70170
:102720005091A8016091A9017091AA01452B462BF7
:10273000472B69F30097A105B10541F02AE22A95DC
:10274000F1F700C00197A109B109E1CF8091A6017D
:102750000C94FE0F1F920F920FB60F9211242F931D
:102760003F938F939F93AF93BF9380911E0290915D
:102770001F02A0912002B091210230911D0223E09E
:10278000230F2D3758F50196A11DB11D20931D0271
:1027900080931E0290931F02A0932002B093210207
:1027A0008091220290912302A0912402B0912502EF
:1027B0000196A11DB11D8093220290932302A09344
:1027C0002402B0932502BF91AF919F918F913F91C9
:1027D0002F910F900FBE0F901F90189526E8230F92
:1027E0000296A11DB11DD2CF1F920F920FB60F926C
:1027F00011242F933F934F935F936F937F938F9306
:102800009F93AF93BF93EF93FF938AE292E00E946E
:10281000D306FF91EF91BF91AF919F918F917F91DF
:102820006F915F914F913F912F910F900FBE0F903D
:102830001F9018951F920F920FB60F9211242F938D
:102840008F939F93EF93FF93E0913A02F0913B02B5
:102850008081E0914002F091410282FD1BC0908195
:10286000809143028F5F8F7320914402821741F061
:10287000E0914302F0E0E65DFD4F958F80934302C7
:10288000FF91EF919F918F912F910F900FBE0F901D
:102890001F9018958081F4CF1F920F920FB60F9260
:1028A00011242F933F934F935F936F937F938F9355
:1028B0009F93AF93BF93EF93FF938091B900887F6D
:1028C000803609F44AC0F0F5883209F4A7C018F53B
:1028D000803109F49BC0B8F4882309F4F9C088302A
:1028E00009F494C0FF91EF91BF91AF919F918F91A7
:1028F0007F916F915F914F913F912F910F900FBEFC
:102900000F901F901895883109F488C0803251F7D4
:102910008093EF0114C0803409F49DC040F48033EB
:10292000B9F38833F9F68093EF0185ECB0C08035B8
:1029300009F485C0883509F496C0883499F60E9458
:102940007213D0CF883909F48CC038F5883729F054
:1029500050F4883611F0803729F683E08093F00137
:102960001092EE0157C0883809F47BC0803919F005
:10297000803809F0B7CF8091EE01803208F071C045
:10298000E091EE0181E08E0F8093EE018091BB001B
:10299000F0E0E253FE4F80833DC0803B39F0E0F42D
:1029A000803A09F479C0883A09F09CCF84E080939A
:1029B000F0011092CD011092CC01E0911902F0913A
:1029C0001A0209958091CC0181110FC081E080939A
:1029D000CC011092AC0109C0803C09F4A6CF883C20
:1029E00009F4A3CF883B09F07DCFE091CD0181E0D0
:1029F0008E0F8093CD01F0E0E455FE4F80818093EF
:102A0000BB009091CD018091CC0129C0809115022D
:102A10008093BB0085EC8093BC0064CF909114023E
:102A200080911302981758F5E091140281E08E0FFF
:102A300080931402F0E0ED50FE4F8081E9CFE091E9
:102A4000140281E08E0F809314028091BB00F0E0AD
:102A5000ED50FE4F808390911402809113029817DD
:102A6000C8F285E8D8CFE091140281E08E0F809300
:102A700014028091BB00F0E0ED50FE4F8083809106
:102A8000F20181115CCF81E08093F10184EA8093AF
:102A9000BC001092F00126CF85EC8093BC00109210
:102AA000F0018091EE01803230F4E091EE01F0E02F
:102AB000E253FE4F10826091EE0170E0E091170248
:102AC000F09118028EEC91E009951092EE010ACF78
:102AD0001092EF0134CFCF92DF92EF92FF920F93DB
:102AE0001F93E82FF92F05C0015011092109310961
:102AF00061F1908196239417B9F305C00150110933
:102B00002109310911F1908196239413F7CFC12C3B
:102B1000D12CE12CF12C0AC08FEFC81AD80AE80A90
:102B2000F80A0C151D052E053F0579F080818623D6
:102B3000841791F36C2D7D2D8E2D9F2D1F910F915C
:102B4000FF90EF90DF90CF90089560E070E080E01C
:102B500090E01F910F91FF90EF90DF90CF9008953C
:102B6000CF93DF93EAE2F2E01382128288EE93E0E1
:102B7000A0E0B0E084839583A683B7832AE031E0A8
:102B80003183208325EC30E03587248724EC30E046
:102B90003787268720EC30E0318B208B21EC30E02A
:102BA000338B228B22EC30E0358B248B26EC30E00B
:102BB000378B268B118E128E138E148EC7ECD2E0BB
:102BC0001B821A828C839D83AE83BF838CE191E04C
:102BD00099838883E3E1F3E082E090E0918380834E
:102BE00083E090E09383828361E082E00E94CB05E2
:102BF00060E083E00E94CB05E3EDF2E013821282F5
:102C000020E830E03583248380E490E09783868356
:102C10003187208793878287168A158614861786C0
:102C2000168681E0858B848B2FEF3FEF338B228BD1
:102C3000318B208B878B108E128E118E8EE291E05D
:102C400091838083148E138ED68FC58F10A2178E1A
:102C50008FEF84A385A386A387A380A780E89AE14A
:102C6000A6E0B0E085AB96ABA7ABB0AF80EA96E844
:102C7000A1E0B0E081AF92AFA3AFB4AF80E586AF83
:102C800017AEDF91CF910895789484B5826084BDAA
:102C900084B5816084BD85B5826085BD85B5816060
:102CA00085BD80916E00816080936E0010928100DE
:102CB0008091810082608093810080918100816099
:102CC000809381008091800081608093800080915A
:102CD000B10084608093B1008091B00081608093E6
:102CE000B00080917A00846080937A0080917A00AD
:102CF000826080937A0080917A00816080937A006C
:102D000080917A00806880937A001092C100E091EF
:102D10003A02F0913B0282E08083E0913602F0912A
:102D200037021082E0913802F09139028FEC8083F3
:102D300010924202E0913E02F0913F0286E08083D1
:102D4000E0913C02F0913D02808180618083E091BE
:102D50003C02F0913D02808188608083E0913C02DA
:102D6000F0913D02808180688083E0913C02F09187
:102D70003D0280818F7D80838091F2029091F302E9
:102D8000892B11F10E94FB122091D9023091DA02B5
:102D90008091D7029091D802213231050CF04AC0BF
:102DA000B9016052710977FF02C06F5F7F4F75955F
:102DB00067958357910997FD019600E210E023E79C
:102DC00030E04AE855E049C02091D9023091DA025A
:102DD000C901079697FD0796B3E095958795BA9533
:102DE000E1F72091D7023091D802AC01429FC00197
:102DF000439F900D529F900D11240E947E1D909331
:102E0000F3028093F202892B09F0BCCFC9E3DAE028
:102E1000FE016491662339F08AE292E00E94F50691
:102E20002196892BA9F766E571E08AE292E00E947B
:102E30001D13FFCFB9016054710977FF02C06F5FA6
:102E40007F4F759567958255910997FD019600E42E
:102E500010E022E530E04AE657E0959587950E941C
:102E6000AA0E82E08093F5028091F0029091F10227
:102E7000892B09F42FC28CE38093F40210921C0278
:102E800010921B0210922702109226020E94E00F5D
:102E900083E596E090931A028093190284E596E008
:102EA00090931802809317028091FB0287FD1EC049
:102EB00061E00E94CB0561E08091FB020E947F05EA
:102EC00061E070E080E090E00E94210660E0809187
:102ED000FB020E947F056AE070E080E090E00E94C3
:102EE000210661E08091FB020E947F058091F00243
:102EF0009091F102892B09F4ACC220910803309122
:102F0000090340910A0350910B0360E074E284EFDF
:102F100090E00E94561D20513109410951095695F2
:102F20004795379527952093B80064E086E895E0AB
:102F30000E948B116091D902615083ED92E00E9452
:102F4000401264E082E895E00E948B118091F502C6
:102F500060E1813009F064E183ED92E00E9440126B
:102F600064E08EE795E00E948B118FE88093100358
:102F70008091D7029091D8028038910509F082C2E1
:102F80008091D9029091DA028034910509F08AC2C9
:102F90008091F502813009F073C28FE980931003AC
:102FA000C2E16AED83ED92E00E9440126C2F83ED46
:102FB00092E00E94401261E883ED92E00E9440128C
:102FC0006091100383ED92E00E94401269ED83ED61
:102FD00092E00E9440128091F50262E2813009F095
:102FE00061EF83ED92E00E94401266E088E795E091
:102FF0000E948B118091F0029091F102892B09F4CB
:1030000055C220910C0330910D0340910E03509155
:103010000F0360E074E284EF90E00E94561D20519F
:1030200031094109510956954795379527952093C0
:10303000B80068EE73E080E090E00E942106B3E003
:103040002B2E312C412CC4E25C2EC4EF6C2E712C43
:103050000E94FB12F1E0F093E702F093E80221E016
:1030600030E03093E6022093E5023093E4022093AF
:10307000E3021092E0021092DF021092E20210923C
:10308000E10260E0809113030E947F05C101019776
:10309000F1F761E0809113030E947F0583E290E0E5
:1030A0000197F1F760E0809113030E947F05809102
:1030B0001503909116039927FC01E558F54F64918B
:1030C000FC01E959F54FE491F0E0EE0FFF1FE65DDA
:1030D000F54F8591949100E412E42FE030E0462F03
:1030E0000E946B15611571058105910529F06F5FCF
:1030F0007F4F8F4F9F4F9F700E942D1C20E030E02C
:1031000040E05FE30E94E41C2AE23EE74CE05DE31E
:103110000E94E41C6B017C0120E030E0A9010E94C8
:10312000F91B882309F4CCC120E030E048EC53E4DB
:10313000C701B6010E94DF1C18160CF4C1C1A7011B
:103140009601C701B6010E94511D69E571E0811128
:103150001BC046015701E894B7F82FEF3FEF4FE748
:103160005FE7C501B4010E94511D8111B0C12FEF6D
:103170003FEF4FE75FE7C501B4010E94F91B181646
:103180000CF0A5C16DE571E083ED92E00E941D1386
:1031900066E571E083ED92E00E941D138091F002DC
:1031A0009091F102892B09F409C220910803309112
:1031B000090340910A0350910B03C301B2010E941D
:1031C000561D2051310941095109569547953795AA
:1031D00027952093B80065E084E39AE00E948B1164
:1031E0006091D702615083ED92E00E9440122091DD
:1031F000D9023091DA02C901079697FD079633E0AC
:10320000959587953A95E1F72091D7023091D802AC
:10321000829F8001839F100D929F100D1124C091F9
:10322000F202D091F3028091F0029091F1020C0F22
:103230001D1F009709F415C22091F40231E030936C
:103240002902209328021092270210922602DC0104
:10325000ED91FC910190F081E02D60E40995CC2482
:10326000C394D12C8091F0029091F1020C171D07AC
:1032700009F4BBC1B0E2CB16D104E0F00E94A41067
:103280008091F0029091F1022091F402E1E0E0934C
:103290002902209328021092270210922602DC01B4
:1032A000ED91FC910190F081E02D60E40995CC2432
:1032B000C394D12C8091F0029091F1026991DC01CC
:1032C000ED91FC910190F081E02D0995BFEFCB1AB3
:1032D000DB0AC8CF61E08091F9020E94CB0561E072
:1032E0008091FA020E94CB058091F902082E000C11
:1032F000990BFC01E959F54FE491F0E0EE0FFF1F47
:10330000E35AF54F25913491309301032093000344
:10331000FC01E558F54FE491E09306038091FA0231
:10332000082E000C990BFC01E959F54FE491F0E0EF
:10333000EE0FFF1FE35AF54FA591B491B09303032D
:10334000A0930203FC01E558F54FE491E0930703D5
:103350008C91E82BEC938091EE029091EF02892BF7
:1033600009F434C0CFB7F89480911602811127C0B8
:10337000E1E7FAE08491E5E8FAE09491E82FF0E0E3
:10338000EE0FFF1FED5AF54FA591B491EC91E92393
:1033900021F461E08AE00E947F0561E08AE00E94FA
:1033A000CB058CB580618CBD8CB580648CBD61E033
:1033B0008DE00E94CB0561E08BE00E94CB058091FF
:1033C00016028F5F80931602CFBF6ECD61E08091B1
:1033D000F7020E94CB0561E08091F8020E94CB05C4
:1033E0008091F702082E000C990BFC01E959F54F6A
:1033F000E491F0E0EE0FFF1FE35AF54F2591349171
:103400003093FD022093FC02FC01E558F54FE49156
:10341000E09304038091F802082E000C990BFC0144
:10342000E959F54FE491F0E0EE0FFF1FE35AF54F35
:10343000A591B491B093FF02A093FE02FC01E55860
:10344000F54FE491E09305038C91E095E823EC932C
:103450002BCD8091EE029091EF02892B31F080917B
:103460001103909112030E94C009E0910203F091B0
:10347000030390818091070380958923808355CD34
:103480008FEC8CCD8036910569F48091D9029091B2
:10349000DA02409739F48091F502813029F480E115
:1034A00080931003C2E07DCD8FEAFACFE091020352
:1034B000F0910303808190910703892B8083B9CD1C
:1034C000C12CD12C70E8E72E7FEBF72E42CE2FEFE8
:1034D0003FEF4FE75FE4C701B6010E94DF1C1816FB
:1034E0001CF461E671E050CE2FEF3FEF4FE75FEC49
:1034F000C701B6010E94F91B87FDF3CF20E030E041
:10350000A901C701B6010E94F91B87FF09C06DE23E
:1035100083ED92E00E94FE0BF7FAF094F7F8F09436
:103520002AE037ED43EA5BE3C701B6010E948D1B39
:103530006B017C010E94FE1B4B015C010E942D1C53
:103540009B01AC01C701B6010E948C1B6B017C0181
:103550004AE0C501B4010E942C136EE283ED92E0B3
:103560000E94FE0B20E030E040E251E4C701B601CA
:103570000E94E41C6B017C010E94FE1B4B01B12CDC
:10358000A12C4AE0C501B4010E942C13C501B4016D
:103590000E942D1C9B01AC01C701B6010E948C1B2F
:1035A00020E030E040E251E40E94E41C0E94FE1B57
:1035B00090E080E04AE00E942C13EACD8091EE0278
:1035C0009091EF02892B31F08091110390911203B9
:1035D0000E94C009E0910203F09103039081809161
:1035E0000703809589238083F6CD0E94A4108091E3
:1035F000F0029091F102892B09F475C020910C031F
:1036000030910D0340910E0350910F03C301B2019D
:103610000E94561D2051310941095109569547957F
:10362000379527952093B80060ED77E080E090E033
:103630000E94210661E083ED92E00E94A21268EEF2
:1036400073E080E090E00E94210660E083ED92E06C
:103650000E94A21268EE73E080E090E00E942106D2
:10366000F7CCE0910003F091010380819091060373
:10367000892B80830C171D0709F4B9CF89912091FC
:10368000EE023091EF02232B19F00E94B909F2CF1C
:1036900028E030E040E8E091FC02F091FD029091DA
:1036A0000403582F5423D9F05081952B9083E09137
:1036B000FE02F091FF02908150910503952B9083BB
:1036C000E091FE02F091FF025081909105039095E8
:1036D00095239083469521503109E9F6CBCF50814F
:1036E00090959523E3CFE0910203F091030380814D
:1036F00090910703892B808397CF8EE291E090937E
:10370000D4028093D3028091F2029091F302009749
:1037100011F00C941A1E08955058BB27AA270E9436
:10372000A41B0C94A51C0E94971C38F00E949E1CA0
:1037300020F039F49F3F19F426F40C94941C0EF4F5
:10374000E095E7FB0C948E1CE92F0E94B61C58F301
:10375000BA17620773078407950720F079F4A6F576
:103760000C94D81C0EF4E0950B2EBA2FA02D0B0153
:10377000B90190010C01CA01A0011124FF27591BB6
:1037800099F0593F50F4503E68F11A16F040A22FBC
:10379000232F342F4427585FF3CF4695379527952D
:1037A000A795F0405395C9F77EF41F16BA0B620B2C
:1037B000730B840BBAF09150A1F0FF0FBB1F661F73
:1037C000771F881FC2F70EC0BA0F621F731F841FB6
:1037D00048F4879577956795B795F7959E3F08F0DC
:1037E000B0CF9395880F08F09927EE0F979587959E
:1037F00008950E946A1C08F481E008950E94BE1C8E
:1038000088F09F5798F0B92F9927B751B0F0E1F0A1
:10381000660F771F881F991F1AF0BA95C9F714C051
:10382000B13091F00E94D81CB1E008950C94D81CDE
:10383000672F782F8827B85F39F0B93FCCF386958A
:1038400077956795B395D9F73EF4909580957095E7
:1038500061957F4F8F4F9F4F0895E89409C097FB64
:103860003EF490958095709561957F4F8F4F9F4F57
:103870009923A9F0F92F96E9BB279395F69587959B
:1038800077956795B795F111F8CFFAF4BB0F11F45E
:1038900060FF1BC06F5F7F4F8F4F9F4F16C0882305
:1038A00011F096E911C0772321F09EE8872F762F3B
:1038B00005C0662371F096E8862F70E060E02AF07C
:1038C0009A95660F771F881FDAF7880F9695879568
:1038D00097F90895990F0008550FAA0BE0E8FEEF3D
:1038E00016161706E807F907C0F012161306E407C4
:1038F000F50798F0621B730B840B950B39F40A26BD
:1039000061F0232B242B252B21F408950A2609F49A
:10391000A140A6958FEF811D811D089597F99F679E
:1039200080E870E060E008959FEF80EC0895002447
:103930000A941616170618060906089500240A9414
:1039400012161306140605060895092E0394000C9A
:1039500011F4882352F0BB0F40F4BF2B11F460FF29
:1039600004C06F5F7F4F8F4F9F4F089557FD905852
:10397000440F551F59F05F3F71F04795880F97FB33
:10398000991F61F09F3F79F08795089512161306ED
:103990001406551FF2CF4695F1DF08C0161617061C
:1039A0001806991FF1CF8695710561050894089551
:1039B000E894BB2766277727CB0197F908950E94E3
:1039C0006A1C08F48FEF08950E94F71C0C94A51C44
:1039D0000E94971C38F00E949E1C20F0952311F045
:1039E0000C948E1C0C94941C11240C94D91C0E94D1
:1039F000B61C70F3959FC1F3950F50E0551F629F61
:103A0000F001729FBB27F00DB11D639FAA27F00D37
:103A1000B11DAA1F649F6627B00DA11D661F829F5E
:103A20002227B00DA11D621F739FB00DA11D621F43
:103A3000839FA00D611D221F749F3327A00D611D60
:103A4000231F849F600D211D822F762F6A2F112442
:103A50009F5750409AF0F1F088234AF0EE0FFF1F75
:103A6000BB1F661F771F881F91505040A9F79E3FCC
:103A7000510580F00C948E1C0C94D91C5F3FE4F32C
:103A8000983ED4F3869577956795B795F795E79522
:103A90009F5FC1F7FE2B880F911D9695879597F92B
:103AA00008950E946A1C880B990B0895A1E21A2EB2
:103AB000AA1BBB1BFD010DC0AA1FBB1FEE1FFF1FD2
:103AC000A217B307E407F50720F0A21BB30BE40B22
:103AD000F50B661F771F881F991F1A9469F7609569
:103AE0007095809590959B01AC01BD01CF01089523
:103AF000EE0FFF1F0590F491E02D09940F931F9393
:103B0000CF93DF938230910510F482E090E0E09152
:103B10001903F0911A0330E020E0B0E0A0E0309704
:103B200099F42115310509F44AC0281B390B2430BA
:103B30003105D8F58A819B816115710589F1FB01F9
:103B400093838283FE0111C04081518102811381E0
:103B500048175907E0F04817590799F4109761F092
:103B600012960C93129713961C933296CF01DF9105
:103B7000CF911F910F9108950093190310931A0389
:103B8000F4CF2115310551F04217530738F0A90140
:103B9000DB019A01BD01DF01F801C1CFEF01F9CFCF
:103BA00090931A0380931903CDCFFE01E20FF31F08
:103BB000819391932250310939832883D7CF209163
:103BC000170330911803232B41F420910201309107
:103BD00003013093180320931703209100013091C3
:103BE00001012115310541F42DB73EB74091040183
:103BF00050910501241B350BE0911703F091180338
:103C0000E217F307A0F42E1B3F0B2817390778F0B3
:103C1000AC014E5F5F4F2417350748F04E0F5F1F12
:103C20005093180340931703819391939FCFF0E033
:103C3000E0E09CCFCF93DF930097E9F0FC0132974F
:103C400013821282A0911903B0911A03ED0130E0A2
:103C500020E01097A1F420813181820F931F2091E1
:103C60001703309118032817390709F061C0F09342
:103C70001803E0931703DF91CF910895EA01CE175F
:103C8000DF07E8F54A815B819E0141155105B1F7D7
:103C9000E901FB83EA8349915991C40FD51FEC17C1
:103CA000FD0761F4808191810296840F951FE901DF
:103CB00099838883828193819B838A83F0E0E0E00B
:103CC00012968D919C9113970097B9F52D913C9187
:103CD0001197CD010296820F931F20911703309107
:103CE00018032817390739F6309751F510921A033F
:103CF00010921903B0931803A0931703BCCFD3837A
:103D0000C28340815181840F951FC817D90761F480
:103D10004E5F5F4F88819981480F591F51834083BF
:103D20008A819B81938382832115310509F0B0CF6D
:103D3000F0931A03E09319039ECFFD01DC01C0CF7D
:103D400013821282D7CF81E090E0F8940C94AF1EDA
:103D5000DC0101C06D9341505040E0F7089515E03B
:103D6000C3E5D5E004C0FE010E94781D2196C4354C
:083D7000D107C9F7F894FFCF59
:103D780000001B03800000000000F50655068206BF
:103D88004207B3069106A50600000000751048100A
:103D9800F8127E0541102E101F1000000000FE0BC7
:103DA8005506F812B80F09097E05A30E7B0E970E6B
:103DB8008B0E0B0F7E05C409A2127908C208C40D28
:103DC800A70D2F0DD00C0D0A006E616E00696E668E
:063DD800006F766600009A
:00000001FF
